:020000040800F2
:100000006808002099030008F5030008F5030008BC
:10001000F5030008F5030008F503000800000000E0
:10002000000000000000000000000000F5030008D0
:10003000F503000800000000F5030008250D000886
:10004000F5030008F5030008F5030008F5030008B0
:10005000F5030008F5030008F5030008F5030008A0
:10006000F5030008F5030008F5030008F503000890
:10007000F5030008F5030008F5030008F503000880
:10008000F5030008F5030008F5030008F503000870
:10009000F5030008F5030008F5030008F503000860
:1000A000F5030008F5030008F5030008F503000850
:1000B000F5030008F5030008F5030008F503000840
:1000C000F5030008F5030008F5030008F503000830
:1000D000F5030008F5030008F5030008F503000820
:1000E000F5030008F5030008F5030008F503000810
:1000F000F5030008F5030008F5030008F503000800
:10010000F5030008F5030008F5030008F5030008EF
:10011000F5030008F5030008F5030008F5030008DF
:10012000F5030008F5030008F5030008F5030008CF
:10013000F5030008F5030008F5030008F5030008BF
:10014000F5030008F5030008F5030008F5030008AF
:10015000F5030008F5030008F5030008F50300089F
:10016000F5030008F5030008F5030008F50300088F
:10017000F5030008F5030008F5030008F50300087F
:10018000F5030008F503000880B58AB000AF786079
:10019000396000237B6200233B620023FB61002364
:1001A000BB617B681B8A9BB27B627B6A23F44053F2
:1001B0007B623B68DB881A467B6A13437B627B6AFF
:1001C0009AB27B681A827B689B899BB27B627B6A4E
:1001D00023F4B05323F00C037B623B689A883B689E
:1001E0001B8913439AB23B685B8913439BB21A463F
:1001F0007B6A13437B627B6A9AB27B689A817B68D5
:100200009B8A9BB27B627B6A23F440737B623B6870
:100210009B891A467B6A13437B627B6A9AB27B682E
:100220009A8207F10803184600F084FB7B68304A85
:10023000934203D07B682F4A934202D17B693B6291
:1002400001E03B693B627B689B899BB21BB2002B40
:100250000CDA3A6A13469B0013449A001A443B682E
:100260001B685B00B2FBF3F3FB610BE03A6A1346D9
:100270009B0013449A001A443B681B689B00B2FB26
:10028000F3F3FB61FB691C4AA2FB03235B091B011F
:100290007B627B6A1B09642202FB03F3FA69D31AAF
:1002A000BB617B689B899BB21BB2002B0CDABB69DC
:1002B000DB003233104AA2FB03235B0903F0070380
:1002C0007A6A13437B620BE0BB691B0132330A4A33
:1002D000A2FB03235B0903F00F037A6A13437B62DB
:1002E0007B6A9AB27B681A8100BF2837BD4680BD01
:1002F00000100140001401401F85EB5180B483B011
:1003000000AF78600B46FB70FB78002B08D07B6851
:100310009B899BB243F400539AB27B689A8107E0B1
:100320007B689B899BB223F400539AB27B689A81C5
:1003300000BF0C37BD4680BC704700BF80B483B09F
:1003400000AF78600B467B807B88C3F308039AB2CA
:100350007B689A8000BF0C37BD4680BC704700BFE9
:1003600080B485B000AF78600B467B800023FB73C0
:100370007B681B889AB27B8813409BB2002B02D00B
:100380000123FB7301E00023FB73FB7B184614374A
:10039000BD4680BC704700BF80B582B000AF104B37
:1003A0007B60104B3B6007E03B681A1D3A607A683F
:1003B000111D796012681A603B680B4A9342F3D3AF
:1003C0000A480B494FF000028842B8BF40F8042B9E
:1003D000FADB00F041FA00BF0837BD4680BD00BF20
:1003E0002C1A000800000020240000202400002017
:1003F0006800002080B400AFFEE700BF80B485B085
:1004000000AF7860114B1B68BB60EFF30583FB60A6
:10041000FB68002B11D100BF0C4B1A68BB68D21AC5
:100420007B689A42F8D30BE0094B1B6803F48033D6
:10043000002B02D07B68013B7B607B68002BF3D1F3
:1004400000BF1437BD4680BC704700BF28000020A5
:1004500010E000E080B500AF0121012000F014FBA6
:100460000121042000F010FB01214FF4802000F056
:1004700029FB0121082000F007FB00BF80BD00BF61
:1004800080B586B000AF4FF440633B6102233B75FB
:100490000023BB750123FB7502237B7507F1100355
:1004A0001946134800F0DEFC4FF4E043BB60012323
:1004B0003B730023BB7303237B730023FB7307F1A0
:1004C000080319460B4800F0CDFC01233B600023D4
:1004D0003B710023BB7103237B710023FB713B46FF
:1004E0001946054800F0BEFC00BF1837BD4680BD68
:1004F00000080240000C02400000024080B584B0B9
:1005000000AF4FF416533B600023FB800023BB80F9
:1005100000233B810023BB810C237B813B46194692
:100520000548FFF731FE01210348FFF7E7FE00BF52
:100530001037BD4680BD00BF0048004080B586B082
:1005400002AFF860B9607A603B6020230093294BCA
:1005500080222849F86800F0FFFA0346002B08D1F2
:100560004FF48051234800F025FD6420FFF746FF3B
:10057000F6E7102300931F4B40221E49B86800F095
:10058000EBFA0346002B08D14FF44051194800F014
:1005900011FD6420FFF732FFF6E702230093154BAD
:1005A00008221449786800F0D7FA0346002B08D1D6
:1005B0004FF4E0410F4800F0FDFC6420FFF71EFF00
:1005C000F6E7012300930B4B04220A49386800F038
:1005D000C3FA0346002B08D14FF48041054800F0D0
:1005E000E9FC6420FFF70AFFF6E700BF1037BD46BD
:1005F00080BD00BF000C024090B58BB000AF044638
:10060000084611461A462346FB800346BB800B462C
:100610007B8013463B8053233B74B7F9063007F1C8
:100620000C010A22184601F0ABF9B7F9062007F1D0
:100630000C031146184600F085F87B7B7B74BB7B6E
:10064000BB74FB7BFB743B233B75B7F9043007F1AC
:100650000C010A22184601F093F9B7F9042007F1BA
:100660000C031146184600F06DF87B7B7B75BB7B55
:10067000BB75FB7BFB753B233B76B7F9023007F17B
:100680000C010A22184601F07BF9B7F9022007F1A4
:100690000C031146184600F055F87B7B7B76BB7B3C
:1006A000BB76FB7BFB763B233B77B7F9003007F14A
:1006B0000C010A22184601F063F9B7F9002007F18E
:1006C0000C031146184600F03DF87B7B7B77BB7B23
:1006D000BB77FB7BFB773B2387F82030FA88BB880E
:1006E00013449AB27B8813449AB23B8813449BB25A
:1006F000FB84B7F9263007F10C010A22184601F0F5
:100700003FF9B7F9262007F10C031146184600F00F
:1007100019F83B7B87F821307B7B87F82230BB7B45
:1007200087F82330FB7B87F82430452387F8253072
:1007300007F110031621184600F05CF800BF2C37B3
:10074000BD4690BD80B483B000AF78600B467B801F
:10075000B7F90230092B13DCB7F90230002B0FDD9B
:100760007B6803337A6812781A707B680233302210
:100770001A707B68013330221A707B6830221A703D
:10078000B7F90230632B14DCB7F90230092B10DD06
:100790007B6803337A6852781A707B6802337A6810
:1007A00012781A707B68013330221A707B6830220D
:1007B0001A70B7F90230B3F57A7F15DAB7F902305B
:1007C000632B11DD7B6803337A6892781A707B683B
:1007D00002337A6852781A707B6801337A6812782B
:1007E0001A707B6830221A7000BF0C37BD4680BC7F
:1007F000704700BF80B584B000AF78600B467B8047
:100800000023BB810023FB811AE02820FFF7F6FDBF
:10081000B7F90E307A6813441B789BB219460D481D
:10082000FFF78CFD00BF40210A48FFF799FD034602
:10083000002BF8D0B7F90E309BB201339BB2FB818D
:10084000B7F90E20B7F902309A42DEDB00BF10374D
:10085000BD4680BD00480040F0B597B000AF78605D
:10086000396000F001FCFFF7F5FDFFF709FE0722F4
:100870000A212D4800F0B0FB07220B212A4800F086
:10088000ABFBFFF73BFE07F1080307F11C0207F182
:10089000300107F14400FFF751FE244B00221A807B
:1008A00007F14403184600F09DF907F1300318469C
:1008B00000F098F907F11C03184600F093F907F1CE
:1008C0000803184600F08EF90121194800F058FB82
:1008D0000346002B05D0154B01221A80FA20FFF7A2
:1008E0008DFD124BB3F90030012BD9D17B6C18462A
:1008F00001F008F803461CB23B6B184601F002F801
:1009000003461DB2FB69184600F0FCFF03461EB209
:10091000BB68184600F0F6FF03461BB23246294674
:100920002046FFF769FEBBE7000802406200002096
:100930000000024080B489B000AF78600023BB6142
:1009400000237B610023FB6102233B610023FB60EA
:100950000223BB60484B9B6803F00C03BB61BB697F
:10096000042B07D0082B09D0002B3FD17B68434ACA
:100970001A603FE07B68424A1A603BE03E4B5B688E
:1009800003F480039B0DFB603B4B5B6803F03F036C
:10099000BB60FB68002B0DD0394ABB68B2FBF3F299
:1009A000354B596847F6C0730B409B0903FB02F3B4
:1009B000FB610CE0314ABB68B2FBF3F22E4B596885
:1009C00047F6C0730B409B0903FB02F3FB612A4B04
:1009D0005B6803F440331B0C01335B003B61FA6935
:1009E0003B69B2FBF3F27B681A6003E07B68234A41
:1009F0001A6000BF204B9B6803F0F003BB61BB692A
:100A00001B09BB611F4ABB6913441B78DBB27B61C6
:100A10007B681A687B69DA407B685A60164B9B6872
:100A200003F4E053BB61BB699B0ABB61154ABB6918
:100A300013441B78DBB27B617B685A687B69DA40C0
:100A40007B689A600C4B9B6803F46043BB61BB6995
:100A50005B0BBB610B4ABB6913441B78DBB27B6148
:100A60007B685A687B69DA407B68DA6000BF2437AC
:100A7000BD4680BC704700BF003802400024F4002F
:100A800000127A000000002080B483B000AF7860CC
:100A90000B46FB70FB78002B06D00949084B1A6BFC
:100AA0007B6813430B6306E00549054B1A6B7B68B3
:100AB000DB4313400B6300BF0C37BD4680BC70475F
:100AC0000038024080B483B000AF78600B46FB7002
:100AD000FB78002B06D00949084B1A6C7B6813433E
:100AE0000B6406E00549054B1A6C7B68DB43134039
:100AF0000B6400BF0C37BD4680BC70470038024015
:100B000080B485B000AF78600F4B1A687B6802FB39
:100B100003F3FB600D4B1B680D4A934204D00B4B53
:100B20001B680C4A934204D1074B1B68FA68D31A1E
:100B3000FB6000BFFB685A1EFA60002BFAD100BFB1
:100B40001437BD4680BC70476400002010000020B0
:100B50000095BA0A00E1F50580B586B002AFF860ED
:100B6000B9603B601346FB8000F054F9FB68BA683B
:100B70005A60FB68FA881A81FB683A68DA60FB6899
:100B80003A8B1A82FB68D868FB68198A01230193A3
:100B9000022300930023012200F00EFBFB6858683B
:100BA000FB6819890123019302230093002300228B
:100BB00000F002FBFB68DB68FA68128A5A83F86867
:100BC00000F010F803464FF00001184600F086FED2
:100BD0000346002B01D0012300E000231846103704
:100BE000BD4680BD80B584B000AF78607B68DB68AF
:100BF0007A68128A5A830220FFF782FF7B68DB68DB
:100C00007A68128A1A830A20FFF77AFF7B68DB680A
:100C10007A68128A5A831A4BBB6006E0BB685A1E78
:100C2000BA60002B01D1174B26E07B685B681B691B
:100C30007A6812891340002BF0D00023FB6005E096
:100C4000FB680133FB600120FFF75AFF7B685B689C
:100C50001B697A6812891340002BF1D1F86800F003
:100C600033FC03460849184600F086FC03461A4642
:100C70007B681A607B681B6818461037BD4680BDCC
:100C800040420F00000080BF7AC18C3C80B483B02A
:100C900000AF03463960FB7197F90730002B0BDA80
:100CA0000D49FB7903F00F03043B3A68D2B21201FD
:100CB000D2B20B441A7609E0084997F907303A682E
:100CC000D2B21201D2B20B4483F8002300BF0C371A
:100CD000BD4680BC704700BF00ED00E000E100E0D1
:100CE00080B582B000AF78607B68B3F1807F01D3BC
:100CF000012311E00A4A7B6823F07F43013B5360E4
:100D00000F214FF0FF30FFF7C1FF054B00229A6023
:100D1000034B07221A60002318460837BD4680BDE2
:100D200010E000E080B582B000AF374B1B680133A4
:100D3000354A1360354B1B68002B04D0334B1B68BE
:100D4000013B324A1360AFF300800023FB7152E095
:100D5000FB792F4A9B0013445B68002B48D0FB793A
:100D60002B4A9B0013445B681B7B002B40D0FB7914
:100D7000274A9B0013445B689B68002B38D0FB79A3
:100D8000234A9B0013445B689A68013A9A60FB7996
:100D90001F4A9B0013445B689B68002B28D1FB799A
:100DA0001B4A9B0013445B681A69FB7918499B0036
:100DB0000B445B685B6918469047FB79144A9B00BB
:100DC00013445A68FB7912499B000B445B681B680B
:100DD0009360FB790E4A9B0013445B685B68002BB1
:100DE00006D1FB790A4A9B0013445B6800221A7300
:100DF000FB790133FB71064B1B78FA799A42A7D332
:100E000000BF0837BD4680BD280000202C00002010
:100E10003400002080B500AF0D4B1B680D4AA2FBCB
:100E200003239B091846FFF75BFF0346002B00D006
:100E3000FEE7074B1B689B09074AA2FB03239B0A9B
:100E4000064A1360064B01221A7000BF80BD00BF26
:100E500010000020D34D621017916502640000203D
:100E60003000002080B487B000AF78603960002384
:100E70007B6100233B610023FB6000237B6176E004
:100E800001227B6902FA03F33B613B681A683B6904
:100E90001340FB60FA683B699A4265D17B681A6827
:100EA0007B695B00032101FA03F3DB431A407B6893
:100EB0001A607B681A683B681B7919467B695B007E
:100EC00001FA03F31A437B681A603B681B79012B14
:100ED00003D03B681B79022B2ED17B689A687B6913
:100EE0005B00032101FA03F3DB431A407B689A603D
:100EF0007B689A683B685B7919467B695B0001FAFD
:100F000003F31A437B689A607B685A687B699BB2DB
:100F1000194601238B40DB431A407B685A607B688B
:100F20005B683A68927911467A6992B201FA02F2E4
:100F300092B21A437B685A607B68DA687B699BB21D
:100F40005B00032101FA03F3DB431A407B68DA609C
:100F50007B68DA683B68DB7919467B695B0001FADC
:100F600003F31A437B68DA607B6901337B617B6939
:100F70000F2B85D900BF1C37BD4680BC704700BF12
:100F800080B485B000AF78600B467B800023FB7394
:100F90007B681A697B881340002B02D00123FB7306
:100FA00001E00023FB73FB7B18461437BD4680BC71
:100FB000704700BF80B483B000AF78600B467B8081
:100FC0007B685A697B885A407B685A6100BF0C373E
:100FD000BD4680BC704700BF80B485B000AF78606C
:100FE0000B467B8013467B700023FB600023BB60B5
:100FF0007A787B8803F007039B0002FA03F3FB6017
:101000007B88DB089BB218467B88DB089BB21A46BC
:101010007B68083253F822207B8803F007039B008B
:101020000F2101FA03F3DB4302EA03017B6800F1BD
:10103000080243F822107B88DB089BB21A467B68C3
:10104000083253F82220FB681343BB607B88DB081F
:101050009BB21A467B680832B96843F8221000BF79
:101060001437BD4680BC704780B500AF124A124BA2
:101070001B6843F0010313600F4B00229A600E4A75
:101080000D4B1B6823F0847323F4803313600A4BE9
:101090000A4A5A60084A084B1B6823F480231360ED
:1010A000054B0022DA6000F00DF8054B4FF00062AE
:1010B0009A6000BF80BD00BF00380240103000249D
:1010C00000ED00E080B483B000AF00237B6000231C
:1010D0003B60354A344B1B6843F480331360324B1A
:1010E0001B6803F400333B607B6801337B603B6823
:1010F000002B03D17B68B3F5A06FF0D12A4B1B689E
:1011000003F40033002B02D001233B6001E00023F5
:101110003B603B68012B42D1234A234B1B6C43F0BD
:1011200080531364214A214B1B6843F480431360AE
:101130001D4A1D4B9B6893601B4A1B4B9B6843F4E5
:1011400000439360184A184B9B6843F4A053936084
:10115000154B174A5A60144A134B1B6843F08073AF
:10116000136000BF104B1B6803F00073002BF9D015
:10117000104B40F205621A600B4A0B4B9B6823F040
:1011800003039360084A084B9B6843F00203936093
:1011900000BF054B9B6803F00C03082BF9D100BF7F
:1011A0000C37BD4680BC70470038024000700040DC
:1011B00008544007003C024080B584B002AF78601C
:1011C000084611461A4603467B800B467B70134641
:1011D0003B707B88002B0ED0786800F021F83878BF
:1011E0007A7879883B7D01933B7C0093034678684D
:1011F00000F02EF800E000BF0837BD4680BD00BFFC
:1012000080B483B000AF78607B6803F13F4303F59F
:101210007E039B0A9BB218460C37BD4680BC7047C4
:1012200080B582B000AF78607868FFF7E9FF0346C9
:101230001A46012303FA02F1044A044B1B6B0B43C9
:10124000136300BF0837BD4680BD00BF00380240B1
:1012500080B584B000AF7860084611461A46034650
:101260007B800B467B7013463B707868FFF7C8FFA6
:101270000346BB730023FB7367E07A88FB7B42FA6B
:1012800003F303F00103002B5BD0BB7BBA7B324935
:1012900031F8122011B2FA7B012000FA02F212B2E8
:1012A0000A4312B291B22C4A22F813107B68DB6811
:1012B000FA7B5200032101FA02F2D2431340397E35
:1012C000FA7B520001FA02F21A437B68DA607B680B
:1012D0001A68FB7B5B00032101FA03F3DB43134035
:1012E0007978FA7B520001FA02F21A437B681A609D
:1012F0007B78012B02D07B78022B23D17B685B6843
:10130000FA7B012101FA02F292B2D24313403978FA
:10131000FA7B01FA02F292B21A437B685A607B6848
:101320009A68FB7B5B00032101FA03F3DB43134064
:10133000397FFA7B520001FA02F21A437B689A6005
:1013400000E000BFFB7B0133FB73FB7B0F2B94D9C9
:1013500000BF1037BD4680BD4C00002080F000402B
:1013600002E000BF81F0004142001FBF5FEA41037D
:1013700092EA030F7FEA226C7FEA236C6AD04FEA7D
:101380001262D2EB1363C1BFD218414048404140C2
:10139000B8BF5B42192B88BF704710F0004F40F474
:1013A000000020F07F4018BF404211F0004F41F490
:1013B000000121F07F4118BF494292EA030F3FD05C
:1013C000A2F1010241FA03FC10EB0C00C3F120036F
:1013D00001FA03F100F0004302D5494260EB4000FE
:1013E000B0F5000F13D3B0F1807F06D340084FEA69
:1013F000310102F10102FE2A51D2B1F1004F40EB5E
:10140000C25008BF20F0010040EA030070474900C5
:1014100040EB000010F4000FA2F10102EDD1B0FA90
:1014200080FCACF1080CB2EB0C0200FA0CF0AABF85
:1014300000EBC25052421843BCBFD0401843704723
:1014400092F0000F81F4000106BF80F40000013229
:10145000013BB5E74FEA41037FEA226C18BF7FEA00
:10146000236C21D092EA030F04D092F0000F08BF42
:101470000846704790EA010F1CBF0020704712F029
:101480007F4F04D1400028BF40F00040704712F168
:1014900000723CBF00F50000704700F0004343F0CD
:1014A000FE4040F4000070477FEA226216BF084603
:1014B0007FEA23630146420206BF5FEA412390EAC6
:1014C000010F40F4800070474FF0000304E000BFBC
:1014D00010F0004348BF40425FEA000C08BF70476D
:1014E00043F0964301464FF000001CE050EA010231
:1014F00008BF70474FF000030AE000BF50EA010246
:1015000008BF704711F0004302D5404261EB410132
:101510005FEA010C02BF84460146002043F0B64357
:1015200008BFA3F18053A3F50003BCFA8CF2083A7C
:10153000A3EBC25310DB01FA02FC634400FA02FC85
:10154000C2F12002BCF1004F20FA02F243EB02008C
:1015500008BF20F00100704702F1200201FA02FCEE
:10156000C2F1200250EA4C0021FA02F243EB0200E1
:1015700008BF20EADC7070474FF0FF0C1CEAD05225
:101580001EBF1CEAD15392EA0C0F93EA0C0F6FD0E6
:101590001A4480EA010C400218BF5FEA41211ED0C4
:1015A0004FF0006343EA501043EA5111A0FB0131B0
:1015B0000CF00040B1F5000F3EBF490041EAD37185
:1015C0005B0040EA010062F17F02FD2A1DD8B3F101
:1015D000004F40EBC25008BF20F00100704790F070
:1015E000000F0CF0004C08BF49024CEA502040EAC2
:1015F00051207F3AC2BFD2F1FF0340EAC250704788
:1016000040F400004FF00003013A5DDC12F1190FC5
:10161000DCBF00F000407047C2F10002410021FA37
:1016200002F1C2F1200200FA02FC5FEA310040F14F
:10163000000053EA4C0308BF20EADC70704792F0C8
:10164000000F00F0004C02BF400010F4000F013A00
:10165000F9D040EA0C0093F0000F01F0004C02BFFB
:10166000490011F4000F013BF9D041EA0C018FE76A
:101670000CEAD15392EA0C0F18BF93EA0C0F0AD070
:1016800030F0004C18BF31F0004CD8D180EA010096
:1016900000F00040704790F0000F17BF90F0004F2F
:1016A000084691F0000F91F0004F14D092EA0C0F11
:1016B00001D142020FD193EA0C0F03D14B0218BFA4
:1016C000084608D180EA010000F0004040F0FE40EA
:1016D00040F40000704740F0FE4040F44000704786
:1016E0004FF0FF0C1CEAD0521EBF1CEAD15392EA05
:1016F0000C0F93EA0C0F69D0A2EB030280EA010CF5
:1017000049024FEA402037D04FF0805343EA11118D
:1017100043EA10130CF000408B4238BF5B0042F1EB
:101720007D024FF4000C8B4224BF5B1A40EA0C0090
:10173000B3EB510F24BFA3EB510340EA5C00B3EBC2
:10174000910F24BFA3EB910340EA9C00B3EBD10FB0
:1017500024BFA3EBD10340EADC001B0118BF5FEA02
:101760001C1CE0D1FD2A3FF650AF8B4240EBC2502B
:1017700008BF20F0010070470CF0004C4CEA5020EC
:101780007F32C2BFD2F1FF0340EAC250704740F43B
:1017900000004FF00003013A37E792F0000F00F02D
:1017A000004C02BF400010F4000F013AF9D040EAAB
:1017B0000C0093F0000F01F0004C02BF490011F43F
:1017C000000F013BF9D041EA0C0195E70CEAD15337
:1017D00092EA0C0F08D142027FF47DAF93EA0C0F1E
:1017E0007FF470AF084676E793EA0C0F04D14B0202
:1017F0003FF44CAF08466EE730F0004C18BF31F0B4
:10180000004CCAD130F000427FF45CAF31F00043AD
:101810007FF43CAF5FE700BF4FF0FF3C06E000BF46
:101820004FF0010C02E000BF4FF0010C4DF804CD69
:101830004FEA40024FEA41037FEA226C18BF7FEA79
:10184000236C11D001B052EA530C18BF90EA010F7B
:1018500058BFB2EB030088BFC81738BF6FEAE1700A
:1018600018BF40F0010070477FEA226C02D15FEAA6
:10187000402C05D17FEA236CE4D15FEA412CE1D012
:101880005DF8040B704700BF844608466146FFE7D9
:101890000FB5FFF7C9FF002848BF10F1000F0FBDBB
:1018A0004DF808EDFFF7F4FF0CBF012000205DF8B4
:1018B00008FB00BF4DF808EDFFF7EAFF34BF012039
:1018C00000205DF808FB00BF4DF808EDFFF7E0FFD2
:1018D00094BF012000205DF808FB00BF4DF808ED23
:1018E000FFF7D2FF94BF012000205DF808FB00BF86
:1018F0004DF808EDFFF7C8FF34BF012000205DF868
:1019000008FB00BF4FEA4002B2F1FE4F0FD34FF089
:101910009E03B3EB12620DD94FEA002343F000435C
:1019200010F0004F23FA02F018BF404270474FF00A
:101930000000704712F1610F01D1420205D110F091
:10194000004008BF6FF0004070474FF00000704744
:10195000931E222B10D80A2A10B506D000230C465D
:10196000194400F00FF8204610BD0028F6DA2D23A8
:101970000B7040420123F2E700200870704700BF5F
:10198000FFF7E6BFF0B5DFF878E0164604460F46ED
:10199000BEE80F008BB06D460FC5BEE80F000FC547
:1019A0009EE80300B31E45F8040B222B297022D8B1
:1019B0007D1E2846002200E01A46B4FBF6F10AAB71
:1019C00006FB114423440C4613F8283C00F8013F61
:1019D000531C0029F0D1F954BB184AB1197815F8F5
:1019E000010F29700134111B8C4203F80109F5DB4A
:1019F00038460BB0F0BD002038700BB0F0BD00BF12
:101A0000041A0008303132333435363738396162E0
:101A1000636465666768696A6B6C6D6E6F7071721E
:0C1A2000737475767778797A0000000006
:101A2C000000000001020304010203040607080978
:101A3C00007A030A00000000000000000102030409
:041A4C000607080978
:0400000508000000EF
:00000001FF
